{
  "contractName": "L2PPool",
  "abi": [
    {
      "inputs": [],
      "stateMutability": "nonpayable",
      "type": "constructor"
    },
    {
      "anonymous": false,
      "inputs": [
        {
          "indexed": true,
          "internalType": "address",
          "name": "borrower",
          "type": "address"
        },
        {
          "indexed": true,
          "internalType": "address",
          "name": "delegator",
          "type": "address"
        },
        {
          "indexed": false,
          "internalType": "uint256",
          "name": "amount",
          "type": "uint256"
        }
      ],
      "name": "Borrow",
      "type": "event"
    },
    {
      "anonymous": false,
      "inputs": [
        {
          "indexed": true,
          "internalType": "address",
          "name": "delegator",
          "type": "address"
        },
        {
          "indexed": false,
          "internalType": "uint256",
          "name": "amount",
          "type": "uint256"
        }
      ],
      "name": "Delegate",
      "type": "event"
    },
    {
      "anonymous": false,
      "inputs": [
        {
          "indexed": true,
          "internalType": "address",
          "name": "borrower",
          "type": "address"
        },
        {
          "indexed": true,
          "internalType": "address",
          "name": "delegator",
          "type": "address"
        },
        {
          "indexed": false,
          "internalType": "uint256",
          "name": "amount",
          "type": "uint256"
        }
      ],
      "name": "Repay",
      "type": "event"
    },
    {
      "anonymous": false,
      "inputs": [
        {
          "indexed": true,
          "internalType": "address",
          "name": "delegator",
          "type": "address"
        },
        {
          "indexed": false,
          "internalType": "uint256",
          "name": "amount",
          "type": "uint256"
        }
      ],
      "name": "Withdraw",
      "type": "event"
    },
    {
      "inputs": [
        {
          "internalType": "address",
          "name": "",
          "type": "address"
        }
      ],
      "name": "delegators",
      "outputs": [
        {
          "internalType": "bool",
          "name": "exists",
          "type": "bool"
        },
        {
          "internalType": "uint256",
          "name": "delegated",
          "type": "uint256"
        },
        {
          "internalType": "uint256",
          "name": "loaned",
          "type": "uint256"
        }
      ],
      "stateMutability": "view",
      "type": "function"
    },
    {
      "inputs": [],
      "name": "getDelegations",
      "outputs": [
        {
          "internalType": "address[64]",
          "name": "",
          "type": "address[64]"
        },
        {
          "internalType": "uint256[64]",
          "name": "",
          "type": "uint256[64]"
        },
        {
          "internalType": "uint256[64]",
          "name": "",
          "type": "uint256[64]"
        }
      ],
      "stateMutability": "view",
      "type": "function"
    },
    {
      "inputs": [
        {
          "internalType": "address",
          "name": "protocolAddress",
          "type": "address"
        }
      ],
      "name": "allow",
      "outputs": [],
      "stateMutability": "nonpayable",
      "type": "function"
    },
    {
      "inputs": [
        {
          "internalType": "uint256",
          "name": "amount",
          "type": "uint256"
        }
      ],
      "name": "delegate",
      "outputs": [],
      "stateMutability": "nonpayable",
      "type": "function"
    },
    {
      "inputs": [
        {
          "internalType": "address",
          "name": "delegator",
          "type": "address"
        },
        {
          "internalType": "address",
          "name": "delegatee",
          "type": "address"
        }
      ],
      "name": "getAllowance",
      "outputs": [
        {
          "internalType": "uint256",
          "name": "",
          "type": "uint256"
        }
      ],
      "stateMutability": "view",
      "type": "function"
    },
    {
      "inputs": [
        {
          "internalType": "address[]",
          "name": "delegatorsAddrs",
          "type": "address[]"
        },
        {
          "internalType": "uint16[]",
          "name": "amounts",
          "type": "uint16[]"
        }
      ],
      "name": "withdraw",
      "outputs": [],
      "stateMutability": "nonpayable",
      "type": "function"
    },
    {
      "inputs": [
        {
          "internalType": "address[]",
          "name": "delegatorsAddrs",
          "type": "address[]"
        },
        {
          "internalType": "uint256[]",
          "name": "amounts",
          "type": "uint256[]"
        }
      ],
      "name": "borrow",
      "outputs": [],
      "stateMutability": "nonpayable",
      "type": "function"
    },
    {
      "inputs": [
        {
          "internalType": "address[]",
          "name": "delegatorsAddrs",
          "type": "address[]"
        },
        {
          "internalType": "uint256[]",
          "name": "amounts",
          "type": "uint256[]"
        }
      ],
      "name": "repay",
      "outputs": [],
      "stateMutability": "nonpayable",
      "type": "function"
    }
  ],
  "bytecode": "0x60806040523480156200001157600080fd5b5033600860006101000a81548173ffffffffffffffffffffffffffffffffffffffff021916908373ffffffffffffffffffffffffffffffffffffffff160217905550620000b773e0fba4fc209b4948668006b2be61711b7f465bae69021e19e0c9bab240000073ff795577d9ac8bd7d90ee22b6c1703490b6512fd73ffffffffffffffffffffffffffffffffffffffff166200012160201b62001b9d179092919060201c565b6200011b73e0fba4fc209b4948668006b2be61711b7f465bae69021e19e0c9bab240000073dcf0af9e59c002fa3aa091a46196b37530fd48a873ffffffffffffffffffffffffffffffffffffffff166200012160201b62001b9d179092919060201c565b62000877565b6000811480620001c1575060008373ffffffffffffffffffffffffffffffffffffffff1663dd62ed3e30856040518363ffffffff1660e01b81526004016200016b929190620006ba565b60206040518083038186803b1580156200018457600080fd5b505afa15801562000199573d6000803e3d6000fd5b505050506040513d601f19601f82011682018060405250810190620001bf9190620004c8565b145b62000203576040517f08c379a0000000000000000000000000000000000000000000000000000000008152600401620001fa9062000758565b60405180910390fd5b6200028e8363095ea7b360e01b848460405160240162000225929190620006e7565b604051602081830303815290604052907bffffffffffffffffffffffffffffffffffffffffffffffffffffffff19166020820180517bffffffffffffffffffffffffffffffffffffffffffffffffffffffff83818316178352505050506200029360201b60201c565b505050565b620002bf8273ffffffffffffffffffffffffffffffffffffffff166200042260201b62001cfb1760201c565b62000301576040517f08c379a0000000000000000000000000000000000000000000000000000000008152600401620002f8906200077a565b60405180910390fd5b600060608373ffffffffffffffffffffffffffffffffffffffff16836040516200032c9190620006a1565b6000604051808303816000865af19150503d80600081146200036b576040519150601f19603f3d011682016040523d82523d6000602084013e62000370565b606091505b509150915081620003b8576040517f08c379a0000000000000000000000000000000000000000000000000000000008152600401620003af9062000714565b60405180910390fd5b6000815111156200041c5780806020019051810190620003d991906200049c565b6200041b576040517f08c379a0000000000000000000000000000000000000000000000000000000008152600401620004129062000736565b60405180910390fd5b5b50505050565b60008060007fc5d2460186f7233c927e7db2dcc703c0e500b653ca82273b7bfad8045d85a47060001b9050833f91508082141580156200046557506000801b8214155b92505050919050565b6000815190506200047f8162000843565b92915050565b60008151905062000496816200085d565b92915050565b600060208284031215620004af57600080fd5b6000620004bf848285016200046e565b91505092915050565b600060208284031215620004db57600080fd5b6000620004eb8482850162000485565b91505092915050565b620004ff81620007c3565b82525050565b600062000512826200079c565b6200051e8185620007a7565b9350620005308185602086016200080d565b80840191505092915050565b60006200054b602083620007b2565b91507f5361666545524332303a206c6f772d6c6576656c2063616c6c206661696c65646000830152602082019050919050565b60006200058d602a83620007b2565b91507f5361666545524332303a204552433230206f7065726174696f6e20646964206e60008301527f6f742073756363656564000000000000000000000000000000000000000000006020830152604082019050919050565b6000620005f5603683620007b2565b91507f5361666545524332303a20617070726f76652066726f6d206e6f6e2d7a65726f60008301527f20746f206e6f6e2d7a65726f20616c6c6f77616e6365000000000000000000006020830152604082019050919050565b60006200065d601f83620007b2565b91507f5361666545524332303a2063616c6c20746f206e6f6e2d636f6e7472616374006000830152602082019050919050565b6200069b8162000803565b82525050565b6000620006af828462000505565b915081905092915050565b6000604082019050620006d16000830185620004f4565b620006e06020830184620004f4565b9392505050565b6000604082019050620006fe6000830185620004f4565b6200070d602083018462000690565b9392505050565b600060208201905081810360008301526200072f816200053c565b9050919050565b6000602082019050818103600083015262000751816200057e565b9050919050565b600060208201905081810360008301526200077381620005e6565b9050919050565b6000602082019050818103600083015262000795816200064e565b9050919050565b600081519050919050565b600081905092915050565b600082825260208201905092915050565b6000620007d082620007e3565b9050919050565b60008115159050919050565b600073ffffffffffffffffffffffffffffffffffffffff82169050919050565b6000819050919050565b60005b838110156200082d57808201518184015260208101905062000810565b838111156200083d576000848401525b50505050565b6200084e81620007d7565b81146200085a57600080fd5b50565b620008688162000803565b81146200087457600080fd5b50565b612bc580620008876000396000f3fe608060405234801561001057600080fd5b50600436106100885760003560e01c80639e346df61161005b5780639e346df61461012b5780639fa6dd3514610147578063dc87191c14610163578063ff9913e81461017f57610088565b80630af4187d1461008d578063299a37bc146100bd57806339e5274c146100dd5780638d23fc61146100f9575b600080fd5b6100a760048036038101906100a29190612083565b61019b565b6040516100b491906129a2565b60405180910390f35b6100c56102ed565b6040516100d493929190612856565b60405180910390f35b6100f760048036038101906100f29190612183565b610580565b005b610113600480360381019061010e919061205a565b610a53565b60405161012293929190612890565b60405180910390f35b6101456004803603810190610140919061210e565b610a8a565b005b610161600480360381019061015c919061224a565b6112a8565b005b61017d60048036038101906101789190612183565b6115a9565b005b6101996004803603810190610194919061205a565b6119ef565b005b600080733c73a5e5785cac854d468f727c606c07488a29d673ffffffffffffffffffffffffffffffffffffffff1663d2493b6c73ff795577d9ac8bd7d90ee22b6c1703490b6512fd6040518263ffffffff1660e01b81526004016101ff9190612615565b60606040518083038186803b15801561021757600080fd5b505afa15801561022b573d6000803e3d6000fd5b505050506040513d601f19601f8201168201806040525081019061024f91906120bf565b5091505060008173ffffffffffffffffffffffffffffffffffffffff16636bd76d2486866040518363ffffffff1660e01b81526004016102909291906126ab565b60206040518083038186803b1580156102a857600080fd5b505afa1580156102bc573d6000803e3d6000fd5b505050506040513d601f19601f820116820180604052508101906102e09190612273565b9050809250505092915050565b6102f5611eb8565b6102fd611edb565b610305611edb565b61030d611edb565b610315611edb565b61031d611eb8565b6000805b60008054905081101561056d57600115156001600080848154811061034257fe5b9060005260206000200160009054906101000a900473ffffffffffffffffffffffffffffffffffffffff1673ffffffffffffffffffffffffffffffffffffffff1673ffffffffffffffffffffffffffffffffffffffff16815260200190815260200160002060000160009054906101000a900460ff161515141561056057600081815481106103cd57fe5b9060005260206000200160009054906101000a900473ffffffffffffffffffffffffffffffffffffffff1683836040811061040457fe5b602002019073ffffffffffffffffffffffffffffffffffffffff16908173ffffffffffffffffffffffffffffffffffffffff16815250506001600080838154811061044b57fe5b9060005260206000200160009054906101000a900473ffffffffffffffffffffffffffffffffffffffff1673ffffffffffffffffffffffffffffffffffffffff1673ffffffffffffffffffffffffffffffffffffffff168152602001908152602001600020600101548583604081106104c057fe5b602002018181525050600160008083815481106104d957fe5b9060005260206000200160009054906101000a900473ffffffffffffffffffffffffffffffffffffffff1673ffffffffffffffffffffffffffffffffffffffff1673ffffffffffffffffffffffffffffffffffffffff1681526020019081526020016000206002015484836040811061054e57fe5b60200201818152505081806001019250505b8080600101915050610321565b5081848496509650965050505050909192565b600360003373ffffffffffffffffffffffffffffffffffffffff1673ffffffffffffffffffffffffffffffffffffffff16815260200190815260200160002060000160009054906101000a900460ff1661060f576040517f08c379a000000000000000000000000000000000000000000000000000000000815260040161060690612907565b60405180910390fd5b6000805b85859050811015610962576000670de0b6b3a764000085858481811061063557fe5b9050602002013502905073e0fba4fc209b4948668006b2be61711b7f465bae73ffffffffffffffffffffffffffffffffffffffff1663a415bcad73ff795577d9ac8bd7d90ee22b6c1703490b6512fd83600160008c8c8981811061069557fe5b90506020020160208101906106aa919061205a565b6040518663ffffffff1660e01b81526004016106ca959493929190612803565b600060405180830381600087803b1580156106e457600080fd5b505af11580156106f8573d6000803e3d6000fd5b50505050670de0b6b3a764000085858481811061071157fe5b9050602002013502830192506001600088888581811061072d57fe5b9050602002016020810190610742919061205a565b73ffffffffffffffffffffffffffffffffffffffff1673ffffffffffffffffffffffffffffffffffffffff168152602001908152602001600020600360003373ffffffffffffffffffffffffffffffffffffffff1673ffffffffffffffffffffffffffffffffffffffff16815260200190815260200160002060020160008989868181106107cc57fe5b90506020020160208101906107e1919061205a565b73ffffffffffffffffffffffffffffffffffffffff1673ffffffffffffffffffffffffffffffffffffffff1681526020019081526020016000206000820160009054906101000a900460ff168160000160006101000a81548160ff0219169083151502179055506001820154816001015560028201548160020155905050806001600089898681811061087057fe5b9050602002016020810190610885919061205a565b73ffffffffffffffffffffffffffffffffffffffff1673ffffffffffffffffffffffffffffffffffffffff168152602001908152602001600020600201600082825401925050819055508686838181106108db57fe5b90506020020160208101906108f0919061205a565b73ffffffffffffffffffffffffffffffffffffffff163373ffffffffffffffffffffffffffffffffffffffff167f312a5e5e1079f5dda4e95dbbd0b908b291fd5b992ef22073643ab691572c5b528360405161094c91906129a2565b60405180910390a3508080600101915050610613565b5080600360003373ffffffffffffffffffffffffffffffffffffffff1673ffffffffffffffffffffffffffffffffffffffff1681526020019081526020016000206001018190555073ff795577d9ac8bd7d90ee22b6c1703490b6512fd73ffffffffffffffffffffffffffffffffffffffff1663a9059cbb33836040518363ffffffff1660e01b81526004016109f9929190612682565b602060405180830381600087803b158015610a1357600080fd5b505af1158015610a27573d6000803e3d6000fd5b505050506040513d601f19601f82011682018060405250810190610a4b91906121f8565b505050505050565b60016020528060005260406000206000915090508060000160009054906101000a900460ff16908060010154908060020154905083565b6000733c73a5e5785cac854d468f727c606c07488a29d673ffffffffffffffffffffffffffffffffffffffff1663d2493b6c73ff795577d9ac8bd7d90ee22b6c1703490b6512fd6040518263ffffffff1660e01b8152600401610aed9190612615565b60606040518083038186803b158015610b0557600080fd5b505afa158015610b19573d6000803e3d6000fd5b505050506040513d601f19601f82011682018060405250810190610b3d91906120bf565b5091505060008173ffffffffffffffffffffffffffffffffffffffff1663c634dfaa336040518263ffffffff1660e01b8152600401610b7c9190612630565b60206040518083038186803b158015610b9457600080fd5b505afa158015610ba8573d6000803e3d6000fd5b505050506040513d601f19601f82011682018060405250810190610bcc9190612273565b90506000818373ffffffffffffffffffffffffffffffffffffffff166370a08231336040518263ffffffff1660e01b8152600401610c0a9190612630565b60206040518083038186803b158015610c2257600080fd5b505afa158015610c36573d6000803e3d6000fd5b505050506040513d601f19601f82011682018060405250810190610c5a9190612273565b0390506000805b88889050811015610f05576000670de0b6b3a7640000888884818110610c8357fe5b9050602002016020810190610c989190612221565b61ffff1602905060018a8a905003821415610cb35783810190505b73e0fba4fc209b4948668006b2be61711b7f465bae73ffffffffffffffffffffffffffffffffffffffff1663a415bcad73ff795577d9ac8bd7d90ee22b6c1703490b6512fd83600160008f8f89818110610d0957fe5b9050602002016020810190610d1e919061205a565b6040518663ffffffff1660e01b8152600401610d3e959493929190612803565b600060405180830381600087803b158015610d5857600080fd5b505af1158015610d6c573d6000803e3d6000fd5b5050505080600560008c8c86818110610d8157fe5b9050602002016020810190610d96919061205a565b73ffffffffffffffffffffffffffffffffffffffff1673ffffffffffffffffffffffffffffffffffffffff1681526020019081526020016000206000828254019250508190555080600160008c8c86818110610dee57fe5b9050602002016020810190610e03919061205a565b73ffffffffffffffffffffffffffffffffffffffff1673ffffffffffffffffffffffffffffffffffffffff168152602001908152602001600020600201600082825401925050819055508083019250898983818110610e5e57fe5b9050602002016020810190610e73919061205a565b73ffffffffffffffffffffffffffffffffffffffff163373ffffffffffffffffffffffffffffffffffffffff167f312a5e5e1079f5dda4e95dbbd0b908b291fd5b992ef22073643ab691572c5b528a8a86818110610ecd57fe5b9050602002016020810190610ee29190612221565b604051610eef9190612987565b60405180910390a3508080600101915050610c61565b506000831115610fcb5773e0fba4fc209b4948668006b2be61711b7f465bae73ffffffffffffffffffffffffffffffffffffffff1663573ade8173ff795577d9ac8bd7d90ee22b6c1703490b6512fd836001336040518563ffffffff1660e01b8152600401610f7794939291906127be565b602060405180830381600087803b158015610f9157600080fd5b505af1158015610fa5573d6000803e3d6000fd5b505050506040513d601f19601f82011682018060405250810190610fc99190612273565b505b6000600160003373ffffffffffffffffffffffffffffffffffffffff1673ffffffffffffffffffffffffffffffffffffffff168152602001908152602001600020600101819055506000600160003373ffffffffffffffffffffffffffffffffffffffff1673ffffffffffffffffffffffffffffffffffffffff168152602001908152602001600020600201819055506000600560003373ffffffffffffffffffffffffffffffffffffffff1673ffffffffffffffffffffffffffffffffffffffff16815260200190815260200160002081905550600073dcf0af9e59c002fa3aa091a46196b37530fd48a873ffffffffffffffffffffffffffffffffffffffff166370a08231336040518263ffffffff1660e01b81526004016110ef9190612615565b60206040518083038186803b15801561110757600080fd5b505afa15801561111b573d6000803e3d6000fd5b505050506040513d601f19601f8201168201806040525081019061113f9190612273565b905073dcf0af9e59c002fa3aa091a46196b37530fd48a873ffffffffffffffffffffffffffffffffffffffff166323b872dd3330846040518463ffffffff1660e01b81526004016111929392919061264b565b602060405180830381600087803b1580156111ac57600080fd5b505af11580156111c0573d6000803e3d6000fd5b505050506040513d601f19601f820116820180604052508101906111e491906121f8565b5073e0fba4fc209b4948668006b2be61711b7f465bae73ffffffffffffffffffffffffffffffffffffffff166369328dec73ff795577d9ac8bd7d90ee22b6c1703490b6512fd83336040518463ffffffff1660e01b815260040161124a939291906126fd565b602060405180830381600087803b15801561126457600080fd5b505af1158015611278573d6000803e3d6000fd5b505050506040513d601f19601f8201168201806040525081019061129c9190612273565b50505050505050505050565b6000670de0b6b3a76400008202905073ff795577d9ac8bd7d90ee22b6c1703490b6512fd73ffffffffffffffffffffffffffffffffffffffff166323b872dd3330846040518463ffffffff1660e01b81526004016113089392919061264b565b602060405180830381600087803b15801561132257600080fd5b505af1158015611336573d6000803e3d6000fd5b505050506040513d601f19601f8201168201806040525081019061135a91906121f8565b5073e0fba4fc209b4948668006b2be61711b7f465bae73ffffffffffffffffffffffffffffffffffffffff1663e8eda9df73ff795577d9ac8bd7d90ee22b6c1703490b6512fd833360006040518563ffffffff1660e01b81526004016113c39493929190612734565b600060405180830381600087803b1580156113dd57600080fd5b505af11580156113f1573d6000803e3d6000fd5b50505050600160003373ffffffffffffffffffffffffffffffffffffffff1673ffffffffffffffffffffffffffffffffffffffff16815260200190815260200160002060000160009054906101000a900460ff16611507576000339080600181540180825580915050600190039060005260206000200160009091909190916101000a81548173ffffffffffffffffffffffffffffffffffffffff021916908373ffffffffffffffffffffffffffffffffffffffff16021790555060018060003373ffffffffffffffffffffffffffffffffffffffff1673ffffffffffffffffffffffffffffffffffffffff16815260200190815260200160002060000160006101000a81548160ff0219169083151502179055505b80600160003373ffffffffffffffffffffffffffffffffffffffff1673ffffffffffffffffffffffffffffffffffffffff168152602001908152602001600020600101600082825401925050819055503373ffffffffffffffffffffffffffffffffffffffff167fb0d234274aef7a61aa5a2eb44c23881ebf46a068cccbd413c978bcbd555fe17f8260405161159d91906129a2565b60405180910390a25050565b600360003373ffffffffffffffffffffffffffffffffffffffff1673ffffffffffffffffffffffffffffffffffffffff16815260200190815260200160002060000160009054906101000a900460ff16611638576040517f08c379a000000000000000000000000000000000000000000000000000000000815260040161162f90612907565b60405180910390fd5b6000805b8585905081101561166b5783838281811061165357fe5b9050602002013582019150808060010191505061163c565b506000670de0b6b3a76400008202905073ff795577d9ac8bd7d90ee22b6c1703490b6512fd73ffffffffffffffffffffffffffffffffffffffff166323b872dd3330846040518463ffffffff1660e01b81526004016116cc9392919061264b565b602060405180830381600087803b1580156116e657600080fd5b505af11580156116fa573d6000803e3d6000fd5b505050506040513d601f19601f8201168201806040525081019061171e91906121f8565b5060005b868690508110156119e6576000670de0b6b3a764000086868481811061174457fe5b9050602002013502905073e0fba4fc209b4948668006b2be61711b7f465bae73ffffffffffffffffffffffffffffffffffffffff1663573ade8173ff795577d9ac8bd7d90ee22b6c1703490b6512fd8360018c8c888181106117a257fe5b90506020020160208101906117b7919061205a565b6040518563ffffffff1660e01b81526004016117d69493929190612779565b602060405180830381600087803b1580156117f057600080fd5b505af1158015611804573d6000803e3d6000fd5b505050506040513d601f19601f820116820180604052508101906118289190612273565b5080600560008a8a8681811061183a57fe5b905060200201602081019061184f919061205a565b73ffffffffffffffffffffffffffffffffffffffff1673ffffffffffffffffffffffffffffffffffffffff1681526020019081526020016000206000828254039250508190555080600160008a8a868181106118a757fe5b90506020020160208101906118bc919061205a565b73ffffffffffffffffffffffffffffffffffffffff1673ffffffffffffffffffffffffffffffffffffffff1681526020019081526020016000206002016000828254039250508190555080600660003373ffffffffffffffffffffffffffffffffffffffff1673ffffffffffffffffffffffffffffffffffffffff1681526020019081526020016000206000828254039250508190555087878381811061195f57fe5b9050602002016020810190611974919061205a565b73ffffffffffffffffffffffffffffffffffffffff163373ffffffffffffffffffffffffffffffffffffffff167f05f2eeda0e08e4b437f487c8d7d29b14537d15e3488170dc3de5dbdf8dac4684836040516119d091906129a2565b60405180910390a3508080600101915050611722565b50505050505050565b600860009054906101000a900473ffffffffffffffffffffffffffffffffffffffff1673ffffffffffffffffffffffffffffffffffffffff163373ffffffffffffffffffffffffffffffffffffffff1614611a7f576040517f08c379a0000000000000000000000000000000000000000000000000000000008152600401611a76906128e7565b60405180910390fd5b60001515600360008373ffffffffffffffffffffffffffffffffffffffff1673ffffffffffffffffffffffffffffffffffffffff16815260200190815260200160002060000160009054906101000a900460ff1615151415611b9a576001600360008373ffffffffffffffffffffffffffffffffffffffff1673ffffffffffffffffffffffffffffffffffffffff16815260200190815260200160002060000160006101000a81548160ff0219169083151502179055506002819080600181540180825580915050600190039060005260206000200160009091909190916101000a81548173ffffffffffffffffffffffffffffffffffffffff021916908373ffffffffffffffffffffffffffffffffffffffff1602179055505b50565b6000811480611c36575060008373ffffffffffffffffffffffffffffffffffffffff1663dd62ed3e30856040518363ffffffff1660e01b8152600401611be49291906126ab565b60206040518083038186803b158015611bfc57600080fd5b505afa158015611c10573d6000803e3d6000fd5b505050506040513d601f19601f82011682018060405250810190611c349190612273565b145b611c75576040517f08c379a0000000000000000000000000000000000000000000000000000000008152600401611c6c90612947565b60405180910390fd5b611cf68363095ea7b360e01b8484604051602401611c949291906126d4565b604051602081830303815290604052907bffffffffffffffffffffffffffffffffffffffffffffffffffffffff19166020820180517bffffffffffffffffffffffffffffffffffffffffffffffffffffffff8381831617835250505050611d46565b505050565b60008060007fc5d2460186f7233c927e7db2dcc703c0e500b653ca82273b7bfad8045d85a47060001b9050833f9150808214158015611d3d57506000801b8214155b92505050919050565b611d658273ffffffffffffffffffffffffffffffffffffffff16611cfb565b611da4576040517f08c379a0000000000000000000000000000000000000000000000000000000008152600401611d9b90612967565b60405180910390fd5b600060608373ffffffffffffffffffffffffffffffffffffffff1683604051611dcd91906125fe565b6000604051808303816000865af19150503d8060008114611e0a576040519150601f19603f3d011682016040523d82523d6000602084013e611e0f565b606091505b509150915081611e54576040517f08c379a0000000000000000000000000000000000000000000000000000000008152600401611e4b906128c7565b60405180910390fd5b600081511115611eb25780806020019051810190611e7291906121f8565b611eb1576040517f08c379a0000000000000000000000000000000000000000000000000000000008152600401611ea890612927565b60405180910390fd5b5b50505050565b604051806108000160405280604090602082028036833780820191505090505090565b604051806108000160405280604090602082028036833780820191505090505090565b600081359050611f0d81612b33565b92915050565b600081519050611f2281612b33565b92915050565b60008083601f840112611f3a57600080fd5b8235905067ffffffffffffffff811115611f5357600080fd5b602083019150836020820283011115611f6b57600080fd5b9250929050565b60008083601f840112611f8457600080fd5b8235905067ffffffffffffffff811115611f9d57600080fd5b602083019150836020820283011115611fb557600080fd5b9250929050565b60008083601f840112611fce57600080fd5b8235905067ffffffffffffffff811115611fe757600080fd5b602083019150836020820283011115611fff57600080fd5b9250929050565b60008151905061201581612b4a565b92915050565b60008135905061202a81612b61565b92915050565b60008135905061203f81612b78565b92915050565b60008151905061205481612b78565b92915050565b60006020828403121561206c57600080fd5b600061207a84828501611efe565b91505092915050565b6000806040838503121561209657600080fd5b60006120a485828601611efe565b92505060206120b585828601611efe565b9150509250929050565b6000806000606084860312156120d457600080fd5b60006120e286828701611f13565b93505060206120f386828701611f13565b925050604061210486828701611f13565b9150509250925092565b6000806000806040858703121561212457600080fd5b600085013567ffffffffffffffff81111561213e57600080fd5b61214a87828801611f28565b9450945050602085013567ffffffffffffffff81111561216957600080fd5b61217587828801611f72565b925092505092959194509250565b6000806000806040858703121561219957600080fd5b600085013567ffffffffffffffff8111156121b357600080fd5b6121bf87828801611f28565b9450945050602085013567ffffffffffffffff8111156121de57600080fd5b6121ea87828801611fbc565b925092505092959194509250565b60006020828403121561220a57600080fd5b600061221884828501612006565b91505092915050565b60006020828403121561223357600080fd5b60006122418482850161201b565b91505092915050565b60006020828403121561225c57600080fd5b600061226a84828501612030565b91505092915050565b60006020828403121561228557600080fd5b600061229384828501612045565b91505092915050565b60006122a883836122db565b60208301905092915050565b60006122c083836125e0565b60208301905092915050565b6122d581612a94565b82525050565b6122e481612a3e565b82525050565b6122f381612a3e565b82525050565b612302816129d1565b61230c8184612a0c565b9250612317826129bd565b8060005b8381101561234857815161232f878261229c565b965061233a836129f2565b92505060018101905061231b565b505050505050565b612359816129dc565b6123638184612a17565b925061236e826129c7565b8060005b8381101561239f57815161238687826122b4565b9650612391836129ff565b925050600181019050612372565b505050505050565b6123b081612a50565b82525050565b60006123c1826129e7565b6123cb8185612a22565b93506123db818560208601612b00565b80840191505092915050565b6123f081612aa6565b82525050565b6123ff81612ab8565b82525050565b6000612412602083612a2d565b91507f5361666545524332303a206c6f772d6c6576656c2063616c6c206661696c65646000830152602082019050919050565b6000612452601583612a2d565b91507f73656e646572206e6f7420617574686f72697a656400000000000000000000006000830152602082019050919050565b6000612492601783612a2d565b91507f6e6f7420616e20616c6c6f77656420626f72726f7765720000000000000000006000830152602082019050919050565b60006124d2602a83612a2d565b91507f5361666545524332303a204552433230206f7065726174696f6e20646964206e60008301527f6f742073756363656564000000000000000000000000000000000000000000006020830152604082019050919050565b6000612538603683612a2d565b91507f5361666545524332303a20617070726f76652066726f6d206e6f6e2d7a65726f60008301527f20746f206e6f6e2d7a65726f20616c6c6f77616e6365000000000000000000006020830152604082019050919050565b600061259e601f83612a2d565b91507f5361666545524332303a2063616c6c20746f206e6f6e2d636f6e7472616374006000830152602082019050919050565b6125da81612aee565b82525050565b6125e981612a8a565b82525050565b6125f881612a8a565b82525050565b600061260a82846123b6565b915081905092915050565b600060208201905061262a60008301846122ea565b92915050565b600060208201905061264560008301846122cc565b92915050565b600060608201905061266060008301866122cc565b61266d60208301856122ea565b61267a60408301846125ef565b949350505050565b600060408201905061269760008301856122cc565b6126a460208301846125ef565b9392505050565b60006040820190506126c060008301856122ea565b6126cd60208301846122ea565b9392505050565b60006040820190506126e960008301856122ea565b6126f660208301846125ef565b9392505050565b600060608201905061271260008301866122ea565b61271f60208301856125ef565b61272c60408301846122cc565b949350505050565b600060808201905061274960008301876122ea565b61275660208301866125ef565b61276360408301856122cc565b61277060608301846123e7565b95945050505050565b600060808201905061278e60008301876122ea565b61279b60208301866125ef565b6127a860408301856123f6565b6127b560608301846122ea565b95945050505050565b60006080820190506127d360008301876122ea565b6127e060208301866125ef565b6127ed60408301856123f6565b6127fa60608301846122cc565b95945050505050565b600060a08201905061281860008301886122ea565b61282560208301876125ef565b61283260408301866123f6565b61283f60608301856123e7565b61284c60808301846122ea565b9695505050505050565b60006118008201905061286c60008301866122f9565b61287a610800830185612350565b612888611000830184612350565b949350505050565b60006060820190506128a560008301866123a7565b6128b260208301856125ef565b6128bf60408301846125ef565b949350505050565b600060208201905081810360008301526128e081612405565b9050919050565b6000602082019050818103600083015261290081612445565b9050919050565b6000602082019050818103600083015261292081612485565b9050919050565b60006020820190508181036000830152612940816124c5565b9050919050565b600060208201905081810360008301526129608161252b565b9050919050565b6000602082019050818103600083015261298081612591565b9050919050565b600060208201905061299c60008301846125d1565b92915050565b60006020820190506129b760008301846125ef565b92915050565b6000819050919050565b6000819050919050565b600060409050919050565b600060409050919050565b600081519050919050565b6000602082019050919050565b6000602082019050919050565b600081905092915050565b600081905092915050565b600081905092915050565b600082825260208201905092915050565b6000612a4982612a6a565b9050919050565b60008115159050919050565b600061ffff82169050919050565b600073ffffffffffffffffffffffffffffffffffffffff82169050919050565b6000819050919050565b6000612a9f82612aca565b9050919050565b6000612ab182612a5c565b9050919050565b6000612ac382612a8a565b9050919050565b6000612ad582612adc565b9050919050565b6000612ae782612a6a565b9050919050565b6000612af982612a5c565b9050919050565b60005b83811015612b1e578082015181840152602081019050612b03565b83811115612b2d576000848401525b50505050565b612b3c81612a3e565b8114612b4757600080fd5b50565b612b5381612a50565b8114612b5e57600080fd5b50565b612b6a81612a5c565b8114612b7557600080fd5b50565b612b8181612a8a565b8114612b8c57600080fd5b5056fea2646970667358221220ae69eaf52e018427bcf74e9c2276c6b5c23017a42955ff10a6b7a59dfc2fb9ae64736f6c63430007000033",
  "source": "// SPDX-License-Identifier: MIT\npragma solidity^0.7.0;\npragma experimental ABIEncoderV2;\n\nimport { SafeERC20, SafeMath } from '../lib/Libraries.sol';\nimport { IERC20 } from \"../interfaces/IERC20.sol\";\nimport { ILendingPool } from \"../interfaces/ILendingPool.sol\";\nimport { IStableDebtToken } from \"../interfaces/IStableDebtToken.sol\";\nimport { IProtocolDataProvider } from \"../interfaces/IProtocolDataProvider.sol\";\n\n/**\n * @dev Interface for the Liquidity to Protocol Credit Delegation Pool\n */\ncontract L2PPool {\n  using SafeERC20 for IERC20;\n  using SafeMath for uint256;\n\n  // Aave pool management ! Kovan addresses !\n  ILendingPool constant aaveLendingPool = ILendingPool(address(0xE0fBa4Fc209b4948668006B2bE61711b7f465bAe));\n  IProtocolDataProvider constant aaveDataProvider = IProtocolDataProvider(address(0x3c73A5E5785cAC854D468F727c606C07488a29D6));\n  IERC20 constant dai = IERC20(address(0xFf795577d9AC8bD7D90Ee22b6C1703490b6512FD));\n  IERC20 constant aDai = IERC20(address(0xdCf0aF9e59C002FA3AA091a46196b37530FD48a8));\n\n  // Events\n  event Borrow(address indexed borrower, address indexed delegator, uint amount);\n  event Repay(address indexed borrower, address indexed delegator, uint amount);\n  event Delegate(address indexed delegator, uint amount);\n  event Withdraw(address indexed delegator, uint amount);\n\n  // User management\n  address[] delegatorsList;\n  struct Delegator {\n    bool exists;\n    uint delegated;\n    uint loaned;\n  }\n  mapping (address => Delegator) public delegators;\n\n  address[] borrowersList;\n  struct Borrower {\n      bool allowed;\n      uint borrowed;\n      mapping (address => Delegator) linkedDelegators;\n  }\n  mapping (address => Borrower) borrowers;\n\n  // Credit delegations management\n  mapping(address => uint) depositedBalancesPerDepositor;\n  mapping(address => uint) borrowedAmountPerDepositor;\n  mapping(address => uint) borrowedAmountPerBorrower;\n  mapping(address => uint) borrowAmount;\n  uint256 constant decimals = 1e18;\n  address owner;\n\n  constructor() {\n    owner = msg.sender;\n    dai.safeApprove(address(aaveLendingPool), 1e22);\n    aDai.safeApprove(address(aaveLendingPool), 1e22);\n  }\n\n  // VIEW METHODS\n\n  /**\n  * @dev This function returns the current debt situation of the pool's delegators\n  * This data is used to compute the addresses and amounts to use when interacting with the pool\n  * TBD: try to optimize array size (find a way to deal with unsized array?) \n  **/\n  function getDelegations() public view returns (address[64]memory, uint256[64] memory, uint256[64] memory) {\n      uint256[64] memory outDelegations;\n      uint256[64] memory outLoans;\n      address[64] memory delegatorsAddresses;\n      uint counter = 0;\n      for (uint i=0; i<delegatorsList.length; i++) {\n        if(delegators[delegatorsList[i]].exists == true) {\n          delegatorsAddresses[counter] = delegatorsList[i];\n          outDelegations[counter] = delegators[delegatorsList[i]].delegated;    \n          outLoans[counter] = delegators[delegatorsList[i]].loaned;\n          counter++;\n        }\n      }\n      //return addresses;\n      return (delegatorsAddresses, outDelegations, outLoans);\n  }\n\n  // OWNER METHODS\n\n  /**\n  * @dev allow an address so that it can borrow from the pool\n  **/\n  function allow(address protocolAddress) external {\n    require(msg.sender == owner, \"sender not authorized\");\n\n    if(borrowers[protocolAddress].allowed == false) {\n        borrowers[protocolAddress].allowed = true;\n        borrowersList.push(protocolAddress);\n    }\n  }\n\n  // DELEGATOR METHODS\n\n  /**\n  * @dev Deposits an amount of dai to aave and delegates all its borrowing power to the pool\n  **/\n  function delegate(uint256 amount) public {\n    uint256 daiAmount = amount * decimals;\n    dai.transferFrom(msg.sender, address(this), daiAmount);\n    aaveLendingPool.deposit(address(dai), daiAmount, msg.sender, 0);\n    if(!delegators[msg.sender].exists) {\n        delegatorsList.push(msg.sender);\n        delegators[msg.sender].exists = true;\n    }\n    delegators[msg.sender].delegated += daiAmount;\n    emit Delegate(msg.sender, daiAmount);\n  }\n  \n  function getAllowance(address delegator, address delegatee) public view returns(uint) {\n     (, address stableDebtTokenAddress,) = aaveDataProvider.getReserveTokensAddresses(address(dai));\n    uint256 allowance = IStableDebtToken(stableDebtTokenAddress).borrowAllowance(delegator, delegatee);\n    return allowance;\n  }\n  \n  /**\n  * @dev Nullifies the pool credit delegation, burns the users adai and returns dai\n  **/\n  function withdraw(address[] calldata delegatorsAddrs, uint16[] calldata amounts) public {\n\n    (, address stableDebtTokenAddress,) = aaveDataProvider.getReserveTokensAddresses(address(dai));\n    uint debtBalance = IStableDebtToken(stableDebtTokenAddress).principalBalanceOf(msg.sender);\n    \n    uint leftover = IStableDebtToken(stableDebtTokenAddress).balanceOf(msg.sender) - debtBalance;\n\n    uint256 total = 0;\n    for (uint i=0; i<delegatorsAddrs.length; i++) {\n      uint256 amountToBorrow = amounts[i] * decimals;\n      if(i == delegatorsAddrs.length - 1) amountToBorrow += leftover;\n\n      // borrow from delegators to rebalance debt to\n      aaveLendingPool.borrow(address(dai), amountToBorrow, 1, 0, delegatorsAddrs[i]);\n\n      // update storage for other delegators\n      borrowedAmountPerDepositor[delegatorsAddrs[i]] += amountToBorrow;\n      delegators[delegatorsAddrs[i]].loaned += amountToBorrow;\n      total += amountToBorrow;\n\n      emit Borrow(msg.sender, delegatorsAddrs[i], amounts[i]);\n    }\n\n    // repay caller's debt with preceding borrows\n    if(debtBalance > 0) aaveLendingPool.repay(address(dai), total, 1, msg.sender);\n\n    // update storage for withdrawer\n    delegators[msg.sender].delegated = 0;\n    delegators[msg.sender].loaned = 0;\n    borrowedAmountPerDepositor[msg.sender] = 0;\n\n    // withdraw from aave lending pool\n    uint256 adaiBalance = aDai.balanceOf(address(msg.sender));\n    aDai.transferFrom(msg.sender, address(this), adaiBalance);\n    aaveLendingPool.withdraw(address(dai), adaiBalance, msg.sender);\n  }\n    \n  // BORROWER METHODS\n\n  /**\n  * @dev Uses the pool credit delegation to borrow dai for a whitelisted borrower\n  * mints debt tokens for the user\n  * the token's rate is aave's stable rate + the pools rate (TBD)\n  * borrower has to be whitelisted\n  **/\n  function borrow(address[] calldata delegatorsAddrs, uint256[] calldata amounts) external {\n      require(borrowers[msg.sender].allowed, \"not an allowed borrower\");\n      uint256 totalAmount = 0;\n      for (uint i=0; i<delegatorsAddrs.length; i++) {\n          uint amountToBorrow = amounts[i] * decimals;\n          aaveLendingPool.borrow(address(dai), amountToBorrow, 1, 0, delegatorsAddrs[i]);\n          totalAmount += amounts[i] * decimals;\n          borrowers[msg.sender].linkedDelegators[delegatorsAddrs[i]] = delegators[delegatorsAddrs[i]];\n          delegators[delegatorsAddrs[i]].loaned += amountToBorrow;\n          emit Borrow(msg.sender, delegatorsAddrs[i], amountToBorrow);\n      }\n\n      borrowers[msg.sender].borrowed = totalAmount;\n\t  dai.transfer(msg.sender, totalAmount);\n  }\n\n  /**\n  * @dev Borrowers burns a part of their debt by sending a corresponding amount of dai\n  * borrower has to be whitelisted\n  **/\n  function repay(address[] calldata delegatorsAddrs, uint[] calldata amounts) external {\n    require(borrowers[msg.sender].allowed, \"not an allowed borrower\");\n\n    uint total = 0;\n    for (uint i=0; i<delegatorsAddrs.length; i++) {\n      total += amounts[i];\n    }\n    uint256 daiAmount = total * decimals;\n\n    dai.transferFrom(msg.sender, address(this), daiAmount);\n    for (uint i=0; i<delegatorsAddrs.length; i++) {\n      uint256 amountInWei = amounts[i] * decimals;\n      aaveLendingPool.repay(address(dai), amountInWei, 1, delegatorsAddrs[i]);\n\n      // update storage for target delegators\n      borrowedAmountPerDepositor[delegatorsAddrs[i]] -= amountInWei;\n      delegators[delegatorsAddrs[i]].loaned -= amountInWei;\n      borrowedAmountPerBorrower[msg.sender] -= amountInWei;\n\n      emit Repay(msg.sender, delegatorsAddrs[i], amountInWei);\n    }\n  }\n}",
  "sourcePath": "/Users/alex/Workspace/Lab/Lend2Protocols/packages/contracts/contracts/L2PPool.sol",
  "compiler": {
    "name": "solc",
    "version": "0.7.0+commit.9e61f92b.Emscripten.clang"
  },
  "schemaVersion": "3.0.23",
  "updatedAt": "2021-02-07T15:44:05.563Z",
  "devdoc": {
    "details": "Interface for the Liquidity to Protocol Credit Delegation Pool",
    "kind": "dev",
    "methods": {
      "allow(address)": {
        "details": "allow an address so that it can borrow from the pool*"
      },
      "borrow(address[],uint256[])": {
        "details": "Uses the pool credit delegation to borrow dai for a whitelisted borrower mints debt tokens for the user the token's rate is aave's stable rate + the pools rate (TBD) borrower has to be whitelisted*"
      },
      "delegate(uint256)": {
        "details": "Deposits an amount of dai to aave and delegates all its borrowing power to the pool*"
      },
      "getDelegations()": {
        "details": "This function returns the current debt situation of the pool's delegators This data is used to compute the addresses and amounts to use when interacting with the pool TBD: try to optimize array size (find a way to deal with unsized array?) *"
      },
      "repay(address[],uint256[])": {
        "details": "Borrowers burns a part of their debt by sending a corresponding amount of dai borrower has to be whitelisted*"
      },
      "withdraw(address[],uint16[])": {
        "details": "Nullifies the pool credit delegation, burns the users adai and returns dai*"
      }
    },
    "version": 1
  },
  "userdoc": {
    "kind": "user",
    "methods": {},
    "version": 1
  }
}