{
  "contractName": "StableDebtToken",
  "abi": [
    {
      "inputs": [
        {
          "internalType": "address",
          "name": "pool",
          "type": "address"
        },
        {
          "internalType": "address",
          "name": "underlyingAsset",
          "type": "address"
        },
        {
          "internalType": "string",
          "name": "name",
          "type": "string"
        },
        {
          "internalType": "string",
          "name": "symbol",
          "type": "string"
        },
        {
          "internalType": "address",
          "name": "incentivesController",
          "type": "address"
        }
      ],
      "stateMutability": "nonpayable",
      "type": "constructor"
    },
    {
      "anonymous": false,
      "inputs": [
        {
          "indexed": true,
          "internalType": "address",
          "name": "owner",
          "type": "address"
        },
        {
          "indexed": true,
          "internalType": "address",
          "name": "spender",
          "type": "address"
        },
        {
          "indexed": false,
          "internalType": "uint256",
          "name": "value",
          "type": "uint256"
        }
      ],
      "name": "Approval",
      "type": "event"
    },
    {
      "anonymous": false,
      "inputs": [
        {
          "indexed": true,
          "internalType": "address",
          "name": "fromUser",
          "type": "address"
        },
        {
          "indexed": true,
          "internalType": "address",
          "name": "toUser",
          "type": "address"
        },
        {
          "indexed": false,
          "internalType": "address",
          "name": "asset",
          "type": "address"
        },
        {
          "indexed": false,
          "internalType": "uint256",
          "name": "amount",
          "type": "uint256"
        }
      ],
      "name": "BorrowAllowanceDelegated",
      "type": "event"
    },
    {
      "anonymous": false,
      "inputs": [
        {
          "indexed": true,
          "internalType": "address",
          "name": "user",
          "type": "address"
        },
        {
          "indexed": false,
          "internalType": "uint256",
          "name": "amount",
          "type": "uint256"
        },
        {
          "indexed": false,
          "internalType": "uint256",
          "name": "currentBalance",
          "type": "uint256"
        },
        {
          "indexed": false,
          "internalType": "uint256",
          "name": "balanceIncrease",
          "type": "uint256"
        },
        {
          "indexed": false,
          "internalType": "uint256",
          "name": "avgStableRate",
          "type": "uint256"
        },
        {
          "indexed": false,
          "internalType": "uint256",
          "name": "newTotalSupply",
          "type": "uint256"
        }
      ],
      "name": "Burn",
      "type": "event"
    },
    {
      "anonymous": false,
      "inputs": [
        {
          "indexed": true,
          "internalType": "address",
          "name": "user",
          "type": "address"
        },
        {
          "indexed": true,
          "internalType": "address",
          "name": "onBehalfOf",
          "type": "address"
        },
        {
          "indexed": false,
          "internalType": "uint256",
          "name": "amount",
          "type": "uint256"
        },
        {
          "indexed": false,
          "internalType": "uint256",
          "name": "currentBalance",
          "type": "uint256"
        },
        {
          "indexed": false,
          "internalType": "uint256",
          "name": "balanceIncrease",
          "type": "uint256"
        },
        {
          "indexed": false,
          "internalType": "uint256",
          "name": "newRate",
          "type": "uint256"
        },
        {
          "indexed": false,
          "internalType": "uint256",
          "name": "avgStableRate",
          "type": "uint256"
        },
        {
          "indexed": false,
          "internalType": "uint256",
          "name": "newTotalSupply",
          "type": "uint256"
        }
      ],
      "name": "Mint",
      "type": "event"
    },
    {
      "anonymous": false,
      "inputs": [
        {
          "indexed": true,
          "internalType": "address",
          "name": "from",
          "type": "address"
        },
        {
          "indexed": true,
          "internalType": "address",
          "name": "to",
          "type": "address"
        },
        {
          "indexed": false,
          "internalType": "uint256",
          "name": "value",
          "type": "uint256"
        }
      ],
      "name": "Transfer",
      "type": "event"
    },
    {
      "inputs": [],
      "name": "DEBT_TOKEN_REVISION",
      "outputs": [
        {
          "internalType": "uint256",
          "name": "",
          "type": "uint256"
        }
      ],
      "stateMutability": "view",
      "type": "function"
    },
    {
      "inputs": [],
      "name": "POOL",
      "outputs": [
        {
          "internalType": "contract ILendingPool",
          "name": "",
          "type": "address"
        }
      ],
      "stateMutability": "view",
      "type": "function"
    },
    {
      "inputs": [],
      "name": "UNDERLYING_ASSET_ADDRESS",
      "outputs": [
        {
          "internalType": "address",
          "name": "",
          "type": "address"
        }
      ],
      "stateMutability": "view",
      "type": "function"
    },
    {
      "inputs": [
        {
          "internalType": "address",
          "name": "owner",
          "type": "address"
        },
        {
          "internalType": "address",
          "name": "spender",
          "type": "address"
        }
      ],
      "name": "allowance",
      "outputs": [
        {
          "internalType": "uint256",
          "name": "",
          "type": "uint256"
        }
      ],
      "stateMutability": "view",
      "type": "function"
    },
    {
      "inputs": [
        {
          "internalType": "address",
          "name": "spender",
          "type": "address"
        },
        {
          "internalType": "uint256",
          "name": "amount",
          "type": "uint256"
        }
      ],
      "name": "approve",
      "outputs": [
        {
          "internalType": "bool",
          "name": "",
          "type": "bool"
        }
      ],
      "stateMutability": "nonpayable",
      "type": "function"
    },
    {
      "inputs": [
        {
          "internalType": "address",
          "name": "delegatee",
          "type": "address"
        },
        {
          "internalType": "uint256",
          "name": "amount",
          "type": "uint256"
        }
      ],
      "name": "approveDelegation",
      "outputs": [],
      "stateMutability": "nonpayable",
      "type": "function"
    },
    {
      "inputs": [
        {
          "internalType": "address",
          "name": "fromUser",
          "type": "address"
        },
        {
          "internalType": "address",
          "name": "toUser",
          "type": "address"
        }
      ],
      "name": "borrowAllowance",
      "outputs": [
        {
          "internalType": "uint256",
          "name": "",
          "type": "uint256"
        }
      ],
      "stateMutability": "view",
      "type": "function"
    },
    {
      "inputs": [],
      "name": "decimals",
      "outputs": [
        {
          "internalType": "uint8",
          "name": "",
          "type": "uint8"
        }
      ],
      "stateMutability": "view",
      "type": "function"
    },
    {
      "inputs": [
        {
          "internalType": "address",
          "name": "spender",
          "type": "address"
        },
        {
          "internalType": "uint256",
          "name": "subtractedValue",
          "type": "uint256"
        }
      ],
      "name": "decreaseAllowance",
      "outputs": [
        {
          "internalType": "bool",
          "name": "",
          "type": "bool"
        }
      ],
      "stateMutability": "nonpayable",
      "type": "function"
    },
    {
      "inputs": [
        {
          "internalType": "address",
          "name": "spender",
          "type": "address"
        },
        {
          "internalType": "uint256",
          "name": "addedValue",
          "type": "uint256"
        }
      ],
      "name": "increaseAllowance",
      "outputs": [
        {
          "internalType": "bool",
          "name": "",
          "type": "bool"
        }
      ],
      "stateMutability": "nonpayable",
      "type": "function"
    },
    {
      "inputs": [
        {
          "internalType": "uint8",
          "name": "decimals",
          "type": "uint8"
        },
        {
          "internalType": "string",
          "name": "name",
          "type": "string"
        },
        {
          "internalType": "string",
          "name": "symbol",
          "type": "string"
        }
      ],
      "name": "initialize",
      "outputs": [],
      "stateMutability": "nonpayable",
      "type": "function"
    },
    {
      "inputs": [],
      "name": "name",
      "outputs": [
        {
          "internalType": "string",
          "name": "",
          "type": "string"
        }
      ],
      "stateMutability": "view",
      "type": "function"
    },
    {
      "inputs": [],
      "name": "symbol",
      "outputs": [
        {
          "internalType": "string",
          "name": "",
          "type": "string"
        }
      ],
      "stateMutability": "view",
      "type": "function"
    },
    {
      "inputs": [
        {
          "internalType": "address",
          "name": "recipient",
          "type": "address"
        },
        {
          "internalType": "uint256",
          "name": "amount",
          "type": "uint256"
        }
      ],
      "name": "transfer",
      "outputs": [
        {
          "internalType": "bool",
          "name": "",
          "type": "bool"
        }
      ],
      "stateMutability": "nonpayable",
      "type": "function"
    },
    {
      "inputs": [
        {
          "internalType": "address",
          "name": "sender",
          "type": "address"
        },
        {
          "internalType": "address",
          "name": "recipient",
          "type": "address"
        },
        {
          "internalType": "uint256",
          "name": "amount",
          "type": "uint256"
        }
      ],
      "name": "transferFrom",
      "outputs": [
        {
          "internalType": "bool",
          "name": "",
          "type": "bool"
        }
      ],
      "stateMutability": "nonpayable",
      "type": "function"
    },
    {
      "inputs": [],
      "name": "getAverageStableRate",
      "outputs": [
        {
          "internalType": "uint256",
          "name": "",
          "type": "uint256"
        }
      ],
      "stateMutability": "view",
      "type": "function"
    },
    {
      "inputs": [
        {
          "internalType": "address",
          "name": "user",
          "type": "address"
        }
      ],
      "name": "getUserLastUpdated",
      "outputs": [
        {
          "internalType": "uint40",
          "name": "",
          "type": "uint40"
        }
      ],
      "stateMutability": "view",
      "type": "function"
    },
    {
      "inputs": [
        {
          "internalType": "address",
          "name": "user",
          "type": "address"
        }
      ],
      "name": "getUserStableRate",
      "outputs": [
        {
          "internalType": "uint256",
          "name": "",
          "type": "uint256"
        }
      ],
      "stateMutability": "view",
      "type": "function"
    },
    {
      "inputs": [
        {
          "internalType": "address",
          "name": "account",
          "type": "address"
        }
      ],
      "name": "balanceOf",
      "outputs": [
        {
          "internalType": "uint256",
          "name": "",
          "type": "uint256"
        }
      ],
      "stateMutability": "view",
      "type": "function"
    },
    {
      "inputs": [
        {
          "internalType": "address",
          "name": "user",
          "type": "address"
        },
        {
          "internalType": "address",
          "name": "onBehalfOf",
          "type": "address"
        },
        {
          "internalType": "uint256",
          "name": "amount",
          "type": "uint256"
        },
        {
          "internalType": "uint256",
          "name": "rate",
          "type": "uint256"
        }
      ],
      "name": "mint",
      "outputs": [
        {
          "internalType": "bool",
          "name": "",
          "type": "bool"
        }
      ],
      "stateMutability": "nonpayable",
      "type": "function"
    },
    {
      "inputs": [
        {
          "internalType": "address",
          "name": "user",
          "type": "address"
        },
        {
          "internalType": "uint256",
          "name": "amount",
          "type": "uint256"
        }
      ],
      "name": "burn",
      "outputs": [],
      "stateMutability": "nonpayable",
      "type": "function"
    },
    {
      "inputs": [],
      "name": "getSupplyData",
      "outputs": [
        {
          "internalType": "uint256",
          "name": "",
          "type": "uint256"
        },
        {
          "internalType": "uint256",
          "name": "",
          "type": "uint256"
        },
        {
          "internalType": "uint256",
          "name": "",
          "type": "uint256"
        },
        {
          "internalType": "uint40",
          "name": "",
          "type": "uint40"
        }
      ],
      "stateMutability": "view",
      "type": "function"
    },
    {
      "inputs": [],
      "name": "getTotalSupplyAndAvgRate",
      "outputs": [
        {
          "internalType": "uint256",
          "name": "",
          "type": "uint256"
        },
        {
          "internalType": "uint256",
          "name": "",
          "type": "uint256"
        }
      ],
      "stateMutability": "view",
      "type": "function"
    },
    {
      "inputs": [],
      "name": "totalSupply",
      "outputs": [
        {
          "internalType": "uint256",
          "name": "",
          "type": "uint256"
        }
      ],
      "stateMutability": "view",
      "type": "function"
    },
    {
      "inputs": [],
      "name": "getTotalSupplyLastUpdated",
      "outputs": [
        {
          "internalType": "uint40",
          "name": "",
          "type": "uint40"
        }
      ],
      "stateMutability": "view",
      "type": "function"
    },
    {
      "inputs": [
        {
          "internalType": "address",
          "name": "user",
          "type": "address"
        }
      ],
      "name": "principalBalanceOf",
      "outputs": [
        {
          "internalType": "uint256",
          "name": "",
          "type": "uint256"
        }
      ],
      "stateMutability": "view",
      "type": "function"
    }
  ],
  "bytecode": "0x60e060405260006006553480156200001657600080fd5b5060405162001ebb38038062001ebb833981810160405260a08110156200003c57600080fd5b815160208301516040808501805191519395929483019291846401000000008211156200006857600080fd5b9083019060208201858111156200007e57600080fd5b82516401000000008111828201881017156200009957600080fd5b82525081516020918201929091019080838360005b83811015620000c8578181015183820152602001620000ae565b50505050905090810190601f168015620000f65780820380516001836020036101000a031916815260200191505b50604052602001805160405193929190846401000000008211156200011a57600080fd5b9083019060208201858111156200013057600080fd5b82516401000000008111828201881017156200014b57600080fd5b82525081516020918201929091019080838360005b838110156200017a57818101518382015260200162000160565b50505050905090810190601f168015620001a85780820380516001836020036101000a031916815260200191505b5060405260200180519060200190929190505050848484848482826012838360039080519060200190620001de92919062000241565b508251620001f490600490602086019062000241565b506005805460ff90931660ff19909316929092179091556001600160601b0319606091821b811660805297811b881660c0529590951b90951660a05250620002dd98505050505050505050565b828054600181600116156101000203166002900490600052602060002090601f016020900481019282601f106200028457805160ff1916838001178555620002b4565b82800160010185558215620002b4579182015b82811115620002b457825182559160200191906001019062000297565b50620002c2929150620002c6565b5090565b5b80821115620002c25760008155600101620002c7565b60805160601c60a05160601c60c05160601c611b8f6200032c600039806109875280610a6a5280610e0f525080610de952806111f252806117f1525080611673528061169a5250611b8f6000f3fe608060405234801561001057600080fd5b506004361061018e5760003560e01c806395d89b41116100de578063b9a7b62211610097578063dd62ed3e11610071578063dd62ed3e14610616578063e748489014610644578063e78c9b3b1461064c578063f731e9be146106725761018e565b8063b9a7b622146105bc578063c04a8a10146105c4578063c634dfaa146105f05761018e565b806395d89b41146105185780639dc29fac14610520578063a457c2d7146103f7578063a9059cbb1461054c578063b16a19de14610578578063b3f1c93d146105805761018e565b8063395093511161014b5780637535d246116101255780637535d24614610477578063797743381461049b57806379ce6b8c146104d057806390f6fcf2146105105761018e565b806339509351146103f75780636bd76d241461042357806370a08231146104515761018e565b806306fdde0314610193578063095ea7b31461021057806318160ddd1461025057806323b872dd1461026a5780633118724e146102a0578063313ce567146103d9575b600080fd5b61019b610693565b6040805160208082528351818301528351919283929083019185019080838360005b838110156101d55781810151838201526020016101bd565b50505050905090810190601f1680156102025780820380516001836020036101000a031916815260200191505b509250505060405180910390f35b61023c6004803603604081101561022657600080fd5b506001600160a01b038135169060200135610729565b604080519115158252519081900360200190f35b610258610771565b60408051918252519081900360200190f35b61023c6004803603606081101561028057600080fd5b506001600160a01b03813581169160208101359091169060400135610783565b6103d7600480360360608110156102b657600080fd5b60ff82351691908101906040810160208201356401000000008111156102db57600080fd5b8201836020820111156102ed57600080fd5b8035906020019184600183028401116401000000008311171561030f57600080fd5b91908080601f016020809104026020016040519081016040528093929190818152602001838380828437600092019190915250929594936020810193503591505064010000000081111561036257600080fd5b82018360208201111561037457600080fd5b8035906020019184600183028401116401000000008311171561039657600080fd5b91908080601f0160208091040260200160405190810160405280939291908181526020018383808284376000920191909152509295506107cb945050505050565b005b6103e1610886565b6040805160ff9092168252519081900360200190f35b61023c6004803603604081101561040d57600080fd5b506001600160a01b03813516906020013561088f565b6102586004803603604081101561043957600080fd5b506001600160a01b03813581169160200135166108de565b6102586004803603602081101561046757600080fd5b50356001600160a01b031661090b565b61047f610985565b604080516001600160a01b039092168252519081900360200190f35b6104a36109a9565b6040805194855260208501939093528383019190915264ffffffffff166060830152519081900360800190f35b6104f6600480360360208110156104e657600080fd5b50356001600160a01b03166109df565b6040805164ffffffffff9092168252519081900360200190f35b610258610a01565b61019b610a07565b6103d76004803603604081101561053657600080fd5b506001600160a01b038135169060200135610a68565b61023c6004803603604081101561056257600080fd5b506001600160a01b038135169060200135610783565b61047f610de7565b61023c6004803603608081101561059657600080fd5b506001600160a01b03813581169160208101359091169060408101359060600135610e0b565b61025861117c565b6103d7600480360360408110156105da57600080fd5b506001600160a01b038135169060200135611181565b6102586004803603602081101561060657600080fd5b50356001600160a01b031661123b565b6102586004803603604081101561062c57600080fd5b506001600160a01b038135811691602001351661088f565b6104f6611246565b6102586004803603602081101561066257600080fd5b50356001600160a01b0316611253565b61067a61126e565b6040805192835260208301919091528051918290030190f35b60038054604080516020601f600260001961010060018816150201909516949094049384018190048102820181019092528281526060939092909183018282801561071f5780601f106106f45761010080835404028352916020019161071f565b820191906000526020600020905b81548152906001019060200180831161070257829003601f168201915b5050505050905090565b6040805162461bcd60e51b81526020600482015260166024820152751054141493d5905317d393d517d4d5541413d495115160521b6044820152905160009181900360640190fd5b600061077e603b54611287565b905090565b6040805162461bcd60e51b81526020600482015260166024820152751514905394d1915497d393d517d4d5541413d495115160521b6044820152905160009181900360640190fd5b60006107d56112cf565b60075490915060ff16806107ec57506107ec6112d4565b806107f8575060065481115b6108335760405162461bcd60e51b815260040180806020018281038252602e815260200180611b2c602e913960400191505060405180910390fd5b60075460ff16158015610853576007805460ff1916600117905560068290555b61085c846112da565b610865836112f1565b61086e85611304565b801561087f576007805460ff191690555b5050505050565b60055460ff1690565b6040805162461bcd60e51b815260206004820152601760248201527f414c4c4f57414e43455f4e4f545f535550504f525445440000000000000000006044820152905160009181900360640190fd5b6001600160a01b038083166000908152603a60209081526040808320938516835292905220545b92915050565b6000806109178361131a565b6001600160a01b0384166000908152603d60205260409020549091508161094357600092505050610980565b6001600160a01b0384166000908152603c602052604081205461096e90839064ffffffffff16611335565b905061097a8382611349565b93505050505b919050565b7f000000000000000000000000000000000000000000000000000000000000000081565b6000806000806000603b5490506109be611407565b6109c782611287565b603e54919790965091945064ffffffffff1692509050565b6001600160a01b03166000908152603c602052604090205464ffffffffff1690565b603b5490565b60048054604080516020601f600260001961010060018816150201909516949094049384018190048102820181019092528281526060939092909183018282801561071f5780601f106106f45761010080835404028352916020019161071f565b7f00000000000000000000000000000000000000000000000000000000000000006001600160a01b0316610a9a61140d565b6001600160a01b03161460405180604001604052806002815260200161323960f01b81525090610b485760405162461bcd60e51b81526004018080602001828103825283818151815260200191508051906020019080838360005b83811015610b0d578181015183820152602001610af5565b50505050905090810190601f168015610b3a5780820380516001836020036101000a031916815260200191505b509250505060405180910390fd5b50600080610b5584611411565b92509250506000610b64610771565b6001600160a01b0386166000908152603d6020526040812054919250908190868411610b99576000603b819055600255610c1b565b610ba3848861146a565b600281905591506000610bc1610bb8866114ac565b603b5490611349565b90506000610bd8610bd18a6114ac565b8490611349565b9050818110610bf45760006002819055603b8190559450610c18565b610c10610c00856114ac565b610c0a848461146a565b9061152a565b603b81905594505b50505b85871415610c59576001600160a01b0388166000908152603d60209081526040808320839055603c9091529020805464ffffffffff19169055610c87565b6001600160a01b0388166000908152603c60205260409020805464ffffffffff19164264ffffffffff161790555b603e805464ffffffffff19164264ffffffffff1617905586851115610d27576000610cb2868961146a565b9050610cbf898287611631565b6040805182815260208101899052808201889052606081018490526080810186905260a0810185905290516001600160a01b038b169182917fc16f4e4ca34d790de4c656c72fd015c667d688f20be64eea360618545c4c530f9181900360c00190a350610d9c565b6000610d33888761146a565b9050610d40898287611736565b6040805182815260208101899052808201889052606081018690526080810185905290516001600160a01b038b16917f44bd20a79e993bdcc7cbedf54a3b4d19fb78490124b6b90d04fe3242eea579e8919081900360a00190a2505b6040805188815290516000916001600160a01b038b16917fddf252ad1be2c89b69c2b068fc378daa952ba7f163c4a11628f55a4df523b3ef9181900360200190a35050505050505050565b7f000000000000000000000000000000000000000000000000000000000000000081565b60007f00000000000000000000000000000000000000000000000000000000000000006001600160a01b0316610e3f61140d565b6001600160a01b03161460405180604001604052806002815260200161323960f01b81525090610eb05760405162461bcd60e51b8152602060048201818152835160248401528351909283926044909101919085019080838360008315610b0d578181015183820152602001610af5565b50610eb9611a48565b846001600160a01b0316866001600160a01b031614610edd57610edd858786611778565b600080610ee987611411565b9250925050610ef6610771565b808452603b546080850152610f0b9087611855565b60028190556020840152610f1e866114ac565b6040840152610f7c610f38610f338489611855565b6114ac565b6040850151610c0a90610f4b9089611349565b610f76610f57876114ac565b6001600160a01b038d166000908152603d602052604090205490611349565b90611855565b60608401819052604080518082019091526002815261373960f01b6020820152906fffffffffffffffffffffffffffffffff1015610ffb5760405162461bcd60e51b8152602060048201818152835160248401528351909283926044909101919085019080838360008315610b0d578181015183820152602001610af5565b5060608301516001600160a01b0388166000908152603d6020908152604080832093909355603c8152919020805464ffffffffff421664ffffffffff199182168117909255603e805490911690911790558301516110919061105c906114ac565b610c0a61107686604001518961134990919063ffffffff16565b610f7661108688600001516114ac565b608089015190611349565b603b81905560808401526110b0876110a98884611855565b8551611631565b6040805187815290516001600160a01b038916916000917fddf252ad1be2c89b69c2b068fc378daa952ba7f163c4a11628f55a4df523b3ef9181900360200190a3866001600160a01b0316886001600160a01b03167fc16f4e4ca34d790de4c656c72fd015c667d688f20be64eea360618545c4c530f888585886060015189608001518a6020015160405180878152602001868152602001858152602001848152602001838152602001828152602001965050505050505060405180910390a350159695505050505050565b600181565b80603a600061118e61140d565b6001600160a01b03908116825260208083019390935260409182016000908120918716808252919093529120919091556111c661140d565b6001600160a01b03167fda919360433220e13b51e8c211e490d148e61a3bd53de8c097194e458b97f3e17f00000000000000000000000000000000000000000000000000000000000000008460405180836001600160a01b031681526020018281526020019250505060405180910390a35050565b60006109058261131a565b603e5464ffffffffff1690565b6001600160a01b03166000908152603d602052604090205490565b603b54600090819061127f81611287565b925090509091565b600080611292611407565b9050806112a3576000915050610980565b603e546000906112bb90859064ffffffffff16611335565b90506112c78282611349565b949350505050565b600190565b303b1590565b80516112ed906003906020840190611a77565b5050565b80516112ed906004906020840190611a77565b6005805460ff191660ff92909216919091179055565b6001600160a01b031660009081526020819052604090205490565b60006113428383426118af565b9392505050565b6000821580611356575081155b1561136357506000610905565b816b019d971e4fe8401e74000000198161137957fe5b0483111560405180604001604052806002815260200161068760f31b815250906113e45760405162461bcd60e51b8152602060048201818152835160248401528351909283926044909101919085019080838360008315610b0d578181015183820152602001610af5565b50506b033b2e3c9fd0803ce800000091026b019d971e4fe8401e74000000010490565b60025490565b3390565b6000806000806114208561131a565b90508061143857600080600093509350935050611463565b600061144d826114478861090b565b9061146a565b90508161145a8183611855565b90955093509150505b9193909250565b600061134283836040518060400160405280601e81526020017f536166654d6174683a207375627472616374696f6e206f766572666c6f770000815250611985565b6000633b9aca0082810290839082041460405180604001604052806002815260200161068760f31b815250906115235760405162461bcd60e51b8152602060048201818152835160248401528351909283926044909101919085019080838360008315610b0d578181015183820152602001610af5565b5092915050565b604080518082019091526002815261035360f41b6020820152600090826115925760405162461bcd60e51b8152602060048201818152835160248401528351909283926044909101919085019080838360008315610b0d578181015183820152602001610af5565b5060408051808201909152600280825261068760f31b60208301528304906b033b2e3c9fd0803ce800000082190485111561160e5760405162461bcd60e51b8152602060048201818152835160248401528351909283926044909101919085019080838360008315610b0d578181015183820152602001610af5565b5082816b033b2e3c9fd0803ce80000008602018161162857fe5b04949350505050565b6001600160a01b0383166000908152602081905260409020546116548184611855565b6001600160a01b038086166000908152602081905260409020919091557f00000000000000000000000000000000000000000000000000000000000000001615611730577f00000000000000000000000000000000000000000000000000000000000000006001600160a01b03166331873e2e8584846040518463ffffffff1660e01b815260040180846001600160a01b031681526020018381526020018281526020019350505050600060405180830381600087803b15801561171757600080fd5b505af115801561172b573d6000803e3d6000fd5b505050505b50505050565b6001600160a01b038316600090815260208181526040918290205482518084019093526002835261038360f41b91830191909152906116549082908590611985565b6040805180820182526002815261353960f01b6020808301919091526001600160a01b038087166000908152603a835284812091871681529152918220546117c1918490611985565b6001600160a01b038086166000818152603a602090815260408083208986168085529083529281902086905580517f000000000000000000000000000000000000000000000000000000000000000090951685529084018590528051949550909391927fda919360433220e13b51e8c211e490d148e61a3bd53de8c097194e458b97f3e1929081900390910190a350505050565b600082820183811015611342576040805162461bcd60e51b815260206004820152601b60248201527f536166654d6174683a206164646974696f6e206f766572666c6f770000000000604482015290519081900360640190fd5b6000806118c38364ffffffffff861661146a565b9050806118da576118d26119df565b915050611342565b60001981016000600283116118f05760006118f5565b600283035b90506301e133808704600061190a8280611349565b905060006119188284611349565b9050600060026119328461192c8a8a6119ef565b906119ef565b8161193957fe5b049050600060066119508461192c89818d8d6119ef565b8161195757fe5b04905061197581610f76848161196d8a8e6119ef565b610f766119df565b9c9b505050505050505050505050565b600081848411156119d75760405162461bcd60e51b8152602060048201818152835160248401528351909283926044909101919085019080838360008315610b0d578181015183820152602001610af5565b505050900390565b6b033b2e3c9fd0803ce800000090565b6000826119fe57506000610905565b82820282848281611a0b57fe5b04146113425760405162461bcd60e51b8152600401808060200182810382526021815260200180611b0b6021913960400191505060405180910390fd5b6040518060a0016040528060008152602001600081526020016000815260200160008152602001600081525090565b828054600181600116156101000203166002900490600052602060002090601f016020900481019282601f10611ab857805160ff1916838001178555611ae5565b82800160010185558215611ae5579182015b82811115611ae5578251825591602001919060010190611aca565b50611af1929150611af5565b5090565b5b80821115611af15760008155600101611af656fe536166654d6174683a206d756c7469706c69636174696f6e206f766572666c6f77436f6e747261637420696e7374616e63652068617320616c7265616479206265656e20696e697469616c697a6564a2646970667358221220dc42de15b93981b602154aee4199615b9f7ec1b343dca49539ca74d5bcdb9a4664736f6c634300060c0033",
  "immutableReferences": {
    "722": [
      {
        "length": 32,
        "start": 3561
      },
      {
        "length": 32,
        "start": 4594
      },
      {
        "length": 32,
        "start": 6129
      }
    ],
    "724": [
      {
        "length": 32,
        "start": 2439
      },
      {
        "length": 32,
        "start": 2666
      },
      {
        "length": 32,
        "start": 3599
      }
    ],
    "1611": [
      {
        "length": 32,
        "start": 5747
      },
      {
        "length": 32,
        "start": 5786
      }
    ]
  },
  "source": "// SPDX-License-Identifier: agpl-3.0\npragma solidity 0.6.12;\n\nimport {DebtTokenBase} from './DebtTokenBase.sol';\nimport {MathUtils} from '../libraries/math/MathUtils.sol';\nimport {WadRayMath} from '../libraries/math/WadRayMath.sol';\nimport {IStableDebtToken} from '../interfaces/IStableDebtToken.sol';\nimport {Errors} from '../libraries/helpers/Errors.sol';\n\n/**\n * @title StableDebtToken\n * @notice Implements a stable debt token to track the borrowing positions of users\n * at stable rate mode\n * @author Aave\n **/\ncontract StableDebtToken is IStableDebtToken, DebtTokenBase {\n  using WadRayMath for uint256;\n\n  uint256 public constant DEBT_TOKEN_REVISION = 0x1;\n\n  uint256 internal _avgStableRate;\n  mapping(address => uint40) internal _timestamps;\n  mapping(address => uint256) internal _usersStableRate;\n  uint40 internal _totalSupplyTimestamp;\n\n  constructor(\n    address pool,\n    address underlyingAsset,\n    string memory name,\n    string memory symbol,\n    address incentivesController\n  ) public DebtTokenBase(pool, underlyingAsset, name, symbol, incentivesController) {}\n\n  /**\n   * @dev Gets the revision of the stable debt token implementation\n   * @return The debt token implementation revision\n   **/\n  function getRevision() internal pure virtual override returns (uint256) {\n    return DEBT_TOKEN_REVISION;\n  }\n\n  /**\n   * @dev Returns the average stable rate across all the stable rate debt\n   * @return the average stable rate\n   **/\n  function getAverageStableRate() external view virtual override returns (uint256) {\n    return _avgStableRate;\n  }\n\n  /**\n   * @dev Returns the timestamp of the last user action\n   * @return The last update timestamp\n   **/\n  function getUserLastUpdated(address user) external view virtual override returns (uint40) {\n    return _timestamps[user];\n  }\n\n  /**\n   * @dev Returns the stable rate of the user\n   * @param user The address of the user\n   * @return The stable rate of user\n   **/\n  function getUserStableRate(address user) external view virtual override returns (uint256) {\n    return _usersStableRate[user];\n  }\n\n  /**\n   * @dev Calculates the current user debt balance\n   * @return The accumulated debt of the user\n   **/\n  function balanceOf(address account) public view virtual override returns (uint256) {\n    uint256 accountBalance = super.balanceOf(account);\n    uint256 stableRate = _usersStableRate[account];\n    if (accountBalance == 0) {\n      return 0;\n    }\n    uint256 cumulatedInterest =\n      MathUtils.calculateCompoundedInterest(stableRate, _timestamps[account]);\n    return accountBalance.rayMul(cumulatedInterest);\n  }\n\n  struct MintLocalVars {\n    uint256 previousSupply;\n    uint256 nextSupply;\n    uint256 amountInRay;\n    uint256 newStableRate;\n    uint256 currentAvgStableRate;\n  }\n\n  /**\n   * @dev Mints debt token to the `onBehalfOf` address.\n   * -  Only callable by the LendingPool\n   * - The resulting rate is the weighted average between the rate of the new debt\n   * and the rate of the previous debt\n   * @param user The address receiving the borrowed underlying, being the delegatee in case\n   * of credit delegate, or same as `onBehalfOf` otherwise\n   * @param onBehalfOf The address receiving the debt tokens\n   * @param amount The amount of debt tokens to mint\n   * @param rate The rate of the debt being minted\n   **/\n  function mint(\n    address user,\n    address onBehalfOf,\n    uint256 amount,\n    uint256 rate\n  ) external override onlyLendingPool returns (bool) {\n    MintLocalVars memory vars;\n\n    if (user != onBehalfOf) {\n      _decreaseBorrowAllowance(onBehalfOf, user, amount);\n    }\n\n    (, uint256 currentBalance, uint256 balanceIncrease) = _calculateBalanceIncrease(onBehalfOf);\n\n    vars.previousSupply = totalSupply();\n    vars.currentAvgStableRate = _avgStableRate;\n    vars.nextSupply = _totalSupply = vars.previousSupply.add(amount);\n\n    vars.amountInRay = amount.wadToRay();\n\n    vars.newStableRate = _usersStableRate[onBehalfOf]\n      .rayMul(currentBalance.wadToRay())\n      .add(vars.amountInRay.rayMul(rate))\n      .rayDiv(currentBalance.add(amount).wadToRay());\n\n    require(vars.newStableRate <= type(uint128).max, Errors.SDT_STABLE_DEBT_OVERFLOW);\n    _usersStableRate[onBehalfOf] = vars.newStableRate;\n\n    //solium-disable-next-line\n    _totalSupplyTimestamp = _timestamps[onBehalfOf] = uint40(block.timestamp);\n\n    // Calculates the updated average stable rate\n    vars.currentAvgStableRate = _avgStableRate = vars\n      .currentAvgStableRate\n      .rayMul(vars.previousSupply.wadToRay())\n      .add(rate.rayMul(vars.amountInRay))\n      .rayDiv(vars.nextSupply.wadToRay());\n\n    _mint(onBehalfOf, amount.add(balanceIncrease), vars.previousSupply);\n\n    emit Transfer(address(0), onBehalfOf, amount);\n\n    emit Mint(\n      user,\n      onBehalfOf,\n      amount,\n      currentBalance,\n      balanceIncrease,\n      vars.newStableRate,\n      vars.currentAvgStableRate,\n      vars.nextSupply\n    );\n\n    return currentBalance == 0;\n  }\n\n  /**\n   * @dev Burns debt of `user`\n   * @param user The address of the user getting his debt burned\n   * @param amount The amount of debt tokens getting burned\n   **/\n  function burn(address user, uint256 amount) external override onlyLendingPool {\n    (, uint256 currentBalance, uint256 balanceIncrease) = _calculateBalanceIncrease(user);\n\n    uint256 previousSupply = totalSupply();\n    uint256 newAvgStableRate = 0;\n    uint256 nextSupply = 0;\n    uint256 userStableRate = _usersStableRate[user];\n\n    // Since the total supply and each single user debt accrue separately,\n    // there might be accumulation errors so that the last borrower repaying\n    // mght actually try to repay more than the available debt supply.\n    // In this case we simply set the total supply and the avg stable rate to 0\n    if (previousSupply <= amount) {\n      _avgStableRate = 0;\n      _totalSupply = 0;\n    } else {\n      nextSupply = _totalSupply = previousSupply.sub(amount);\n      uint256 firstTerm = _avgStableRate.rayMul(previousSupply.wadToRay());\n      uint256 secondTerm = userStableRate.rayMul(amount.wadToRay());\n\n      // For the same reason described above, when the last user is repaying it might\n      // happen that user rate * user balance > avg rate * total supply. In that case,\n      // we simply set the avg rate to 0\n      if (secondTerm >= firstTerm) {\n        newAvgStableRate = _avgStableRate = _totalSupply = 0;\n      } else {\n        newAvgStableRate = _avgStableRate = firstTerm.sub(secondTerm).rayDiv(nextSupply.wadToRay());\n      }\n    }\n\n    if (amount == currentBalance) {\n      _usersStableRate[user] = 0;\n      _timestamps[user] = 0;\n    } else {\n      //solium-disable-next-line\n      _timestamps[user] = uint40(block.timestamp);\n    }\n    //solium-disable-next-line\n    _totalSupplyTimestamp = uint40(block.timestamp);\n\n    if (balanceIncrease > amount) {\n      uint256 amountToMint = balanceIncrease.sub(amount);\n      _mint(user, amountToMint, previousSupply);\n      emit Mint(\n        user,\n        user,\n        amountToMint,\n        currentBalance,\n        balanceIncrease,\n        userStableRate,\n        newAvgStableRate,\n        nextSupply\n      );\n    } else {\n      uint256 amountToBurn = amount.sub(balanceIncrease);\n      _burn(user, amountToBurn, previousSupply);\n      emit Burn(user, amountToBurn, currentBalance, balanceIncrease, newAvgStableRate, nextSupply);\n    }\n\n    emit Transfer(user, address(0), amount);\n  }\n\n  /**\n   * @dev Calculates the increase in balance since the last user interaction\n   * @param user The address of the user for which the interest is being accumulated\n   * @return The previous principal balance, the new principal balance and the balance increase\n   **/\n  function _calculateBalanceIncrease(address user)\n    internal\n    view\n    returns (\n      uint256,\n      uint256,\n      uint256\n    )\n  {\n    uint256 previousPrincipalBalance = super.balanceOf(user);\n\n    if (previousPrincipalBalance == 0) {\n      return (0, 0, 0);\n    }\n\n    // Calculation of the accrued interest since the last accumulation\n    uint256 balanceIncrease = balanceOf(user).sub(previousPrincipalBalance);\n\n    return (\n      previousPrincipalBalance,\n      previousPrincipalBalance.add(balanceIncrease),\n      balanceIncrease\n    );\n  }\n\n  /**\n   * @dev Returns the principal and total supply, the average borrow rate and the last supply update timestamp\n   **/\n  function getSupplyData()\n    public\n    view\n    override\n    returns (\n      uint256,\n      uint256,\n      uint256,\n      uint40\n    )\n  {\n    uint256 avgRate = _avgStableRate;\n    return (super.totalSupply(), _calcTotalSupply(avgRate), avgRate, _totalSupplyTimestamp);\n  }\n\n  /**\n   * @dev Returns the the total supply and the average stable rate\n   **/\n  function getTotalSupplyAndAvgRate() public view override returns (uint256, uint256) {\n    uint256 avgRate = _avgStableRate;\n    return (_calcTotalSupply(avgRate), avgRate);\n  }\n\n  /**\n   * @dev Returns the total supply\n   **/\n  function totalSupply() public view override returns (uint256) {\n    return _calcTotalSupply(_avgStableRate);\n  }\n\n  /**\n   * @dev Returns the timestamp at which the total supply was updated\n   **/\n  function getTotalSupplyLastUpdated() public view override returns (uint40) {\n    return _totalSupplyTimestamp;\n  }\n\n  /**\n   * @dev Returns the principal debt balance of the user from\n   * @param user The user's address\n   * @return The debt balance of the user since the last burn/mint action\n   **/\n  function principalBalanceOf(address user) external view virtual override returns (uint256) {\n    return super.balanceOf(user);\n  }\n\n  /**\n   * @dev Calculates the total supply\n   * @param avgRate The average rate at which the total supply increases\n   * @return The debt balance of the user since the last burn/mint action\n   **/\n  function _calcTotalSupply(uint256 avgRate) internal view virtual returns (uint256) {\n    uint256 principalSupply = super.totalSupply();\n\n    if (principalSupply == 0) {\n      return 0;\n    }\n\n    uint256 cumulatedInterest =\n      MathUtils.calculateCompoundedInterest(avgRate, _totalSupplyTimestamp);\n\n    return principalSupply.rayMul(cumulatedInterest);\n  }\n\n  /**\n   * @dev Mints stable debt tokens to an user\n   * @param account The account receiving the debt tokens\n   * @param amount The amount being minted\n   * @param oldTotalSupply the total supply before the minting event\n   **/\n  function _mint(\n    address account,\n    uint256 amount,\n    uint256 oldTotalSupply\n  ) internal {\n    uint256 oldAccountBalance = _balances[account];\n    _balances[account] = oldAccountBalance.add(amount);\n\n    if (address(_incentivesController) != address(0)) {\n      _incentivesController.handleAction(account, oldTotalSupply, oldAccountBalance);\n    }\n  }\n\n  /**\n   * @dev Burns stable debt tokens of an user\n   * @param account The user getting his debt burned\n   * @param amount The amount being burned\n   * @param oldTotalSupply The total supply before the burning event\n   **/\n  function _burn(\n    address account,\n    uint256 amount,\n    uint256 oldTotalSupply\n  ) internal {\n    uint256 oldAccountBalance = _balances[account];\n    _balances[account] = oldAccountBalance.sub(amount, Errors.SDT_BURN_EXCEEDS_BALANCE);\n\n    if (address(_incentivesController) != address(0)) {\n      _incentivesController.handleAction(account, oldTotalSupply, oldAccountBalance);\n    }\n  }\n}\n",
  "sourcePath": "/home/akc/workspace/workshops/marketmake/market-make-hack/packages/contracts-aave/contracts/StableDebtToken.sol",
  "compiler": {
    "name": "solc",
    "version": "0.6.12+commit.27d51765.Emscripten.clang"
  },
  "schemaVersion": "3.2.0",
  "updatedAt": "2021-02-10T10:10:10.443Z",
  "devdoc": {
    "author": "Aave*",
    "kind": "dev",
    "methods": {
      "allowance(address,address)": {
        "details": "Returns the allowance of spender on the tokens owned by owner",
        "params": {
          "owner": "The owner of the tokens",
          "spender": "The user allowed to spend the owner's tokens"
        },
        "returns": {
          "_0": "The amount of owner's tokens spender is allowed to spend*"
        }
      },
      "approve(address,uint256)": {
        "details": "Allows `spender` to spend the tokens owned by _msgSender()",
        "params": {
          "spender": "The user allowed to spend _msgSender() tokens"
        },
        "returns": {
          "_0": "`true`*"
        }
      },
      "approveDelegation(address,uint256)": {
        "details": "delegates borrowing power to a user on the specific debt token",
        "params": {
          "amount": "the maximum amount being delegated. Delegation will still respect the liquidation constraints (even if delegated, a delegatee cannot force a delegator HF to go below 1)*",
          "delegatee": "the address receiving the delegated borrowing power"
        }
      },
      "balanceOf(address)": {
        "details": "Calculates the current user debt balance",
        "returns": {
          "_0": "The accumulated debt of the user*"
        }
      },
      "borrowAllowance(address,address)": {
        "details": "returns the borrow allowance of the user",
        "params": {
          "fromUser": "The user to giving allowance",
          "toUser": "The user to give allowance to"
        },
        "returns": {
          "_0": "the current allowance of toUser*"
        }
      },
      "burn(address,uint256)": {
        "details": "Burns debt of `user`",
        "params": {
          "amount": "The amount of debt tokens getting burned*",
          "user": "The address of the user getting his debt burned"
        }
      },
      "decimals()": {
        "returns": {
          "_0": "The decimals of the token*"
        }
      },
      "decreaseAllowance(address,uint256)": {
        "details": "Decreases the allowance of spender to spend _msgSender() tokens",
        "params": {
          "spender": "The user allowed to spend on behalf of _msgSender()",
          "subtractedValue": "The amount being subtracted to the allowance"
        },
        "returns": {
          "_0": "`true`*"
        }
      },
      "getAverageStableRate()": {
        "details": "Returns the average stable rate across all the stable rate debt",
        "returns": {
          "_0": "the average stable rate*"
        }
      },
      "getSupplyData()": {
        "details": "Returns the principal and total supply, the average borrow rate and the last supply update timestamp*"
      },
      "getTotalSupplyAndAvgRate()": {
        "details": "Returns the the total supply and the average stable rate*"
      },
      "getTotalSupplyLastUpdated()": {
        "details": "Returns the timestamp at which the total supply was updated*"
      },
      "getUserLastUpdated(address)": {
        "details": "Returns the timestamp of the last user action",
        "returns": {
          "_0": "The last update timestamp*"
        }
      },
      "getUserStableRate(address)": {
        "details": "Returns the stable rate of the user",
        "params": {
          "user": "The address of the user"
        },
        "returns": {
          "_0": "The stable rate of user*"
        }
      },
      "increaseAllowance(address,uint256)": {
        "details": "Increases the allowance of spender to spend _msgSender() tokens",
        "params": {
          "addedValue": "The amount being added to the allowance",
          "spender": "The user allowed to spend on behalf of _msgSender()"
        },
        "returns": {
          "_0": "`true`*"
        }
      },
      "initialize(uint8,string,string)": {
        "details": "Initializes the debt token.",
        "params": {
          "decimals": "The decimals of the token",
          "name": "The name of the token",
          "symbol": "The symbol of the token"
        }
      },
      "mint(address,address,uint256,uint256)": {
        "details": "Mints debt token to the `onBehalfOf` address. -  Only callable by the LendingPool - The resulting rate is the weighted average between the rate of the new debt and the rate of the previous debt",
        "params": {
          "amount": "The amount of debt tokens to mint",
          "onBehalfOf": "The address receiving the debt tokens",
          "rate": "The rate of the debt being minted*",
          "user": "The address receiving the borrowed underlying, being the delegatee in case of credit delegate, or same as `onBehalfOf` otherwise"
        }
      },
      "name()": {
        "returns": {
          "_0": "The name of the token*"
        }
      },
      "principalBalanceOf(address)": {
        "details": "Returns the principal debt balance of the user from",
        "params": {
          "user": "The user's address"
        },
        "returns": {
          "_0": "The debt balance of the user since the last burn/mint action*"
        }
      },
      "symbol()": {
        "returns": {
          "_0": "The symbol of the token*"
        }
      },
      "totalSupply()": {
        "details": "Returns the total supply*"
      },
      "transfer(address,uint256)": {
        "details": "Being non transferrable, the debt token does not implement any of the standard ERC20 functions for transfer and allowance.*"
      },
      "transferFrom(address,address,uint256)": {
        "details": "Executes a transfer of token from sender to recipient, if _msgSender() is allowed to do so",
        "params": {
          "amount": "The amount of tokens being transferred",
          "recipient": "The recipient of the tokens",
          "sender": "The owner of the tokens"
        },
        "returns": {
          "_0": "`true` if the transfer succeeds, `false` otherwise*"
        }
      }
    },
    "title": "StableDebtToken",
    "version": 1
  },
  "userdoc": {
    "kind": "user",
    "methods": {},
    "notice": "Implements a stable debt token to track the borrowing positions of users at stable rate mode",
    "version": 1
  }
}